:020000040800F2
:1000000078FA002045010008C52800086519000895
:1000100075200008150F0008318500080000000059
:10002000000000000000000000000000717D0008DA
:100030002114000800000000EF0C0008AD7E00084D
:100040004D8500085F0100085F0100085F0100089E
:100050005F0100085F010008D11400085F0100087B
:100060005F010008ED1400084D1500085F0100084D
:100070005F0100085F0100085F0100085F010008E0
:100080005F0100085F0100085F0100085F010008D0
:100090005F0100085F0100085F0100085F010008C0
:1000A0005F0100085F0100085F0100085F010008B0
:1000B0005F0100085F0100085F0100085F010008A0
:1000C0005F0100085F0100085F0100085F01000890
:1000D0005F010008E5810008818200085F010008D7
:1000E0005F0100085F0100085F0100085F01000870
:1000F0005F0100085F0100085F0100085F01000860
:100100005F0100085F0100085F0100085F0100084F
:100110005F0100085F010008BD7F00085F01000863
:100120005F0100085F0100085F0100085F0100082F
:10013000DFF80CD000F0BEFC00480047F992000840
:1001400078FA00200648804706480047FEE7FEE7A9
:10015000FEE7FEE7FEE7FEE7FEE7FEE7FEE7FEE777
:10016000C97E00083101000872B6704762B6704758
:10017000EFF3108072B6704780F31088704730BF7D
:10018000704720BF7047B0FA80F0704790FAA0F037
:10019000B0FA80F0704790FAA0F070472DE9F05F58
:1001A0000546002092469B468846064681464024E6
:1001B0001BE0284641464746224600F0A0FA534637
:1001C0005A46C01A914110D311461846224600F0F3
:1001D00087FA2D1A67EB01084F46224601200021BD
:1001E00000F07EFA17EB00094E41201EA4F1010435
:1001F000DFDC484631462A464346BDE8F09FD2B28E
:1002000001E000F8012B491EFBD270470022F6E7FF
:1002100010B513460A4604461946FFF7F0FF20467C
:1002200010BD30B505462A460B4612F8010B13F8EF
:10023000014B08B1A042F8D01CB1002802D06D1CBF
:10024000F1E7284630BDCAB2401E10F8011F8A42AD
:1002500002D00029F9D10020704710B5002200E03B
:10026000521C835C8C5CA34201D1002BF8D1D8B224
:10027000E1B2401A10BD034611F8012B00F8012B22
:10028000002AF9D11846704770B50F4D00B928689B
:10029000002412E00A4602E09E4203D0521C13786A
:1002A000002BF9D1DAB2224305D02BB124B10021C1
:1002B00000F8011B04E00446401C0678002EE9D13A
:1002C0002860204670BD0000500B002070B5064627
:1002D00008F094F9046805460A220021304600F02F
:1002E0001EFA2C6070BDF0B480EA0102D40F420007
:1002F000B2EB410F02D20246084611464A0042D0F4
:10030000C30DDDB2C1F3C752AD1A202D35DAC1F3EA
:10031000160141F4000204B15242C5F1200602FA6E
:1003200006F12A411044B3EBD05F23D0C4B1012DB4
:10033000A0EBC35009DCF0BC4FF0004202EAC3520C
:10034000DBB200F5000000F02BBA400000F1807035
:1003500000EBC350A0F1807040EAD170490009E081
:10036000490841EAC071A0EBC35000F50000400805
:1003700000EBC350F0BC00F00ABA6142012202EB6C
:100380004101001BF6E7F0BC704781F00041AAE78D
:1003900080F00040A7E780EA010210B502F00043B8
:1003A000400022D04A001FD0010E01EB1261C0F3C1
:1003B0005600C2F3560240F4000042F40002A0FBD3
:1003C000022000047F39140400D0401C50EA12407F
:1003D00001D44000491EC2B20C0604EBD010401CF0
:1003E0004008802A02D003E0002010BD20F0010068
:1003F000002900DA0020184310BD30B480EA010261
:1004000002F0004530F0004221F0004013D090B1DE
:10041000C30DD40DC2F31601C0F31600E41A41F463
:10042000000140F400027D34914201D3641C00E0DD
:100430004900002C02DA30BC002070474FF4000065
:100440000023914201D3891A034340084FEA410136
:10045000F7D151B1914202D14FF0004105E002D2F3
:100460004FF0010101E06FF0010103EBC45028449B
:1004700030BC00F08CB92DE9FE4F81EA030404F092
:10048000004421F0004100944FF0000B23F00043A2
:1004900050EA01045ED052EA03045BD0C3F30A546D
:1004A000C1F30A552C44A4F2F3340194A0FB025486
:1004B000C1F3130141F48011C3F3130343F4801318
:1004C00001FB024400FB034E840A970A44EA81546C
:1004D00047EA8357A4FB076802958D0A05FB078549
:1004E0004FEA932C04FB0C542705029D4FEA065853
:1004F00047EA1637B5EB08056EEB070C870E920E30
:1005000047EA811742EA8312A7FB0201B6EB0B010F
:1005100064EB00042B0D43EA0C335E1844EB1C50D3
:10052000DA465146E7FB0201C5F313044FEA0B33E9
:1005300043EA14534FEA0432019C43EA0603A4F150
:100540000C040294009CCDE900B400F066F903B0FD
:10055000BDE8F08F00200146F9E72DE9F04D81EA72
:10056000030404F0004B21F0004514464FF0000A4C
:1005700023F0004150EA050220D054EA01021DD0C8
:10058000C5F30A570246C5F31303C1F31300C1F3C1
:100590000A5640F4801543F48013A7EB0608101B9D
:1005A000D64608F2FD3873EB050002D308F10108C6
:1005B00001E092185B41B8F1000F03DA0020014618
:1005C000BDE8F08D00204FF48011064684460EE011
:1005D000171B73EB050705D3121B63EB05030643DB
:1005E0004CEA010C49084FEA300092185B4150EA8E
:1005F0000107EDD152EA030012D082EA040083EA37
:100600000501084305D0101BAB4106D2012200238F
:1006100006E000224FF0004302E06FF001025310A9
:100620001AEB06004CEB085110EB0A0041EB0B01F2
:10063000BDE8F04D00F0E2B896230022114600F02C
:10064000AFB800F0004230F000400AD0C10D01F513
:100650006071C0F3160042EA0151C208400711431D
:10066000704700200146704701F0004330B421F08C
:10067000004150EA010206D00A0DA2F56072C1F3F2
:100680001301002A02DC30BC00207047440F44EA0A
:10069000C104C100E01830BC00EBC25000F077B8D4
:1006A000002801DBC0F10040002901DBC1F100415D
:1006B0008142704730B50B460146002020220124BC
:1006C00009E021FA02F59D4205D303FA02F5491B20
:1006D00004FA02F52844151EA2F10102F1DC30BD36
:1006E000202A04DB203A00FA02F1002070479140F2
:1006F000C2F1200320FA03F3194390407047202AE7
:1007000004DB203A21FA02F00021704721FA02F3BB
:10071000D040C2F1200291400843194670472DE9AC
:10072000F04791460F4680460446002614F8015BC8
:100730002DB100F0E3F90068405DC007F6D12B2D24
:1007400002D02D2D18D0641E4A463946204600F0AE
:10075000D9F927B13968A14201D1C7F800807105E4
:100760004FF002040BD54042002803DD07F046FF9E
:100770000460A007BDE8F08746F48066E4E700283F
:10078000F8DA07F03BFF04606FF00040F2E7002961
:10079000A8BF7047401C490008BF20F00100704707
:1007A00010B4B0FA80FC00FA0CF050EA010404BF67
:1007B00010BC704749B1CCF1200421FA04F411FABD
:1007C0000CF118BF012121430843A3EB0C01CB1D01
:1007D0004FEA00614FEA102042BF002010BC704772
:1007E00000EBC35010440029A4BF10BC7047401C4C
:1007F000490008BF20F0010010BC704710B5141E5E
:1008000073F1000408DA401C41F1000192185B41C9
:100810001A4301D120F0010010BD2DE9F04D9246A0
:100820009B4611B1B1FA81F202E0B0FA80F22032B7
:100830009046FFF755FF04460F4640EA0A0041EA9A
:100840000B0153465A46084313D0114653EA0100A0
:1008500019D0C8F140025046FFF751FF05460E4639
:10086000504659464246FFF73BFF084305D001205A
:1008700004E020463946BDE8F08D0020054346EAF5
:10088000E0762C4337430A986305E40AA0EB08009E
:100890000022FD0A44EA47540A3002D500200146EE
:1008A000E9E7010510196941DDE9084500196941C9
:1008B000BDE8F04DA2E72DE9FE4F804681EA030036
:1008C000C00F0C46009021F0004123F00045B8EB2A
:1008D0000200A94105D24046214690461C460B46DF
:1008E000024623F00040104347D0270DC7F30A000B
:1008F000C3F30A510290401A019040286BDAC3F307
:10090000130040F4801B0098924620B10023D2EBE4
:10091000030A63EB0B0B01985946C0F140025046A5
:10092000FFF7DEFE06460D4650465946019A00F096
:10093000D3F810EB08006141002487EA115284EAE1
:10094000E7731A4340D0009A62B3019A012A4FEA32
:10095000075215DC001B61EB02014FF0004202EA76
:100960000752CDE90042001C41F5801132462B466A
:10097000FFF753FF03B0BDE8F08F40462146F9E78B
:10098000001B61EB0201001C41F5801300185B4164
:100990002018A2F5001747EB030140EAD570B619FD
:1009A0006D4111E06D084FEA360645EAC0754FEA21
:1009B0000752001B61EB0201001C41F58011490840
:1009C0004FEA30000019514132462B4603B0BDE8D2
:1009D000F04FFFF713BF0098012240000023D0EB37
:1009E000020263EBE073009821464FEAE074B8EB33
:1009F000000061EB0401E9E783F000435BE781F06D
:100A0000004158E770B521F0004303430CD0C1F317
:100A10000A550024D5EB040564EB0403D617AD1A80
:100A2000B34102DB0020014670BD201841EB0251AA
:100A300070BD0EB5C10F80EAE0700844CA070021FE
:100A400040F233438DE80E000A460B46FFF7E5FE01
:100A500003B000BDC1F30A52C1F3130140F2FF33EA
:100A600041F480119A4202DA00200146704740F2B8
:100A700033439A42A2F2334202DC5242FFF73FBEB6
:100A8000FFF72EBE30B5041E71F1000404DB4FF0F9
:100A90000044404264EB0101141E73F1000405DBC5
:100AA0001C464FF00043524263EB0403994208BFD7
:100AB000904230BD064C074D06E0E06840F001036F
:100AC00094E8070098471034AC42F6D3FFF734FBA4
:100AD000CCB30008ECB30008202A06DBCB17203A81
:100AE00041FA02F043EAE07306E041FA02F3D04033
:100AF000C2F12002914008431946704700487047F0
:100B00001CB300082DE9F05F8246007800271546E7
:100B10008B460AF10104B946302801D09DB113E09B
:100B200014F8010B0127782803D0582801D045B1CB
:100B30000AE00DB1102D07D10027102514F8010B84
:100B400002E0082500E00A250026B0460EE005FB7D
:100B5000080005FB06F1012701EB10461FFA80F89B
:100B6000B6F5803F00D3B94614F8010B294600F0D2
:100B700069F80028EBDABBF1000F05D00FB1641E55
:100B800000E05446CBF80040B9F1000F06D007F062
:100B900035FD02210160C81EBDE8F09F48EA06400D
:100BA000FAE72DE9F04D00231A461B1A8A4103DBB0
:100BB00000200146BDE8F08DC1F30A52C1F31301D4
:100BC00041F480154FF0000BD10702D100186D41A0
:100BD000521E0027044640F2FF11384601EB620A1C
:100BE0003E468046024600204FF48011FFF787FD05
:100BF000C2197141BB1846EB0100B4EB030C75EB55
:100C0000000C04D3E41A65EB000517460E462419C0
:100C100008F101006D4180463428E3DDF91946EB07
:100C20000600091BA84103D24FF0FF32134601E032
:100C3000002213461BEB070046EB0A51BDE8F04DBE
:100C4000FFF7DCBD3A2800D2303820F02002412ADC
:100C500001D3A2F13700884201D34FF0FF30704733
:100C600070B58C1810F8015B15F0070301D110F86E
:100C7000013B2A1106D110F8012B03E010F8016B9B
:100C800001F8016B5B1EF9D12B0705D40023521E1E
:100C90000DD401F8013BFAE710F8013BCB1A921C86
:100CA00003E013F8015B01F8015B521EF9D5A14284
:100CB000D8D3002070BD00001D484FF6FF710170B1
:100CC000002080F309881B48016881F308881A48CE
:100CD0004FF08051016062B6FEE717484FF0805137
:100CE0000160704714484FF080510160704772B640
:100CF000EFF3098028B1203880E8F00F0F49096828
:100D0000086000B50E4880475DF804EB0D480E49B9
:100D10000A78027009480D490A680260106890E874
:100D2000F00F203080F309884EF0040E62B6704751
:100D300022ED00E0780A002004ED00E0480B0020DE
:100D4000A93E0008D60A0020D70A00204C0B00203C
:100D500021B1826842F00102826003E0826822F0E1
:100D6000010282607047014600208A6802F0040296
:100D70000AB1012000E0002070470146C86C80B233
:100D800070470246002013680B400BB1012000E0C1
:100D900000207047014600208A6802F008020AB16C
:100DA000012000E00020704730B5024600200023FB
:100DB00050680F4C20400D790C6844EA052420430C
:100DC000506090680B4C2040D1E902542C434D797F
:100DD00044EA450420439060D06A20F470000C7C03
:100DE000641EE4B2234340EA0350D06230BD0000E9
:100DF000FFFEF0FFFDF7F1FFF0B504460D460020C1
:100E00000021092D11DDE068A5F10A0606EB460771
:100E1000072606FA07F18843A5F10A0606EB4606FF
:100E200003FA06F10843E0600CE0206905EB450792
:100E3000072606FA07F1884305EB450603FA06F193
:100E400008432061072A0FDA606B561E06EB8607FF
:100E50001F2606FA07F18843561E06EB860605FA9A
:100E600006F10843606322E00D2A0FDA206BD61FDB
:100E700006EB86071F2606FA07F18843D61F06EB06
:100E8000860605FA06F10843206310E0E06AA2F145
:100E90000D0606EB86071F2606FA07F18843A2F126
:100EA0000D0606EB860605FA06F10843E062F0BD82
:100EB000816841F008018160704721B1826842F485
:100EC000A002826003E0826822F4A0028260704780
:100ED000816841F0040181607047000008B501217C
:100EE000082006F013FC10208DF8030003208DF875
:100EF00002004FF48070ADF800006946044800F02D
:100F0000EBFB4FF48071024800F07AFC08BD000052
:100F1000000C014000BFFEE701460846044A126883
:100F2000904203D9024A1268801A00E000207047FC
:100F30006C0A002070B5002500BFFFF719F90546BF
:100F400000BF0648046800BF2846FFF715F900BF38
:100F50002046FFF7E1FF0646304670BD700A0020CC
:100F600070B50025FFF7E6FF044600BFFFF700F964
:100F7000054600BF00200449086000BF2846FFF76F
:100F8000FBF800BF204670BD700A002070B5002538
:100F900000BFFFF7EDF8054600BF0648046800BF34
:100FA0002846FFF7E9F800BF2046FFF7B5FF0646E1
:100FB000304670BD740A002010B509480088401CF6
:100FC000074908800748008818B900F039F8064931
:100FD000086004480088401C0249088010BD0000D9
:100FE000600A0020620A0020640A002010B50F4841
:100FF0000088401E0D49088008460088A0B900F00E
:101000001FF80B490860084600680A490968441A35
:1010100009480068A04201D20748046007480068F8
:10102000A04201D20548046010BD0000620A002001
:10103000680A0020640A0020700A0020740A002058
:101040000149486870470000001000E02DE9F041B8
:101050000746884615460421052000F03BF800218C
:10106000012007F07BFA80210A2006F082FE00248E
:1010700005E0395D092007F071FA601CC4B24445EF
:10108000F7DB0321012007F069FAFF2400BF0520E8
:1010900006F08CFC0646601EC4B21CB106F00400CB
:1010A0000028F4D0222006F081FC2870212006F0D0
:1010B0007DFC6870BDE8F08110B505480078012816
:1010C00004D101F063FC00200149087010BD00004C
:1010D0006800002070B505460C46284606F066FC00
:1010E000064626EA0401284607F038FA70BD0000DB
:1010F00010B500F027F8002403E0012000F0BAF951
:10110000641C02210E4800F072FB012801D1642CFE
:10111000F3D3642C01D3012010BD002403E001208F
:1011200000F0A8F9641C0221054800F060FB08B932
:10113000642CF4D3642C01D30120EDE70020EBE70D
:101140000020014008B50121080206F0DFFA48201E
:101150008DF803000220ADF800006946014800F058
:10116000BBFA08BD0020014008B50121080206F0C5
:10117000CDFA10208DF8030003208DF80200022024
:10118000ADF800006946044800F0A6FA02210248C2
:1011900000F038FB08BD00000020014010B5FFF74B
:1011A000E3FF0221064800F02BFB142000F03AF97F
:1011B0000221034800F026FB1E2000F05BF910BD61
:1011C0000020014070B504460025FFF7E7FFFFF758
:1011D0008FFFA0B903E000F03FF860556D1C052DAE
:1011E000F9D3207861780844A1780844E17808446C
:1011F0006179884201D1002070BD0120FCE7012007
:10120000FAE7000010B5002403E0012000F032F9F5
:10121000641C02210F4800F0EAFA012801D1642C75
:10122000F3D3002403E0012000F024F9641C022120
:10123000084800F0DCFA08B9642CF4D3282000F048
:1012400019F90221034800F0D2FA08B1012010BDBB
:101250000020FCE70020014070B50024002505E0D7
:101260006400FFF7CFFF0443681CC5B2082DF7DB0D
:10127000E0B270BD21B1026842F00102026004E0F8
:1012800002684FF6FE731A400260704701684FF61D
:10129000FE72114001600021016041608160C16007
:1012A0004B49884208D14A490839496841F00F0141
:1012B000474A083A51608AE045491431884208D1CA
:1012C00043490839496841F0F001414A083A516000
:1012D0007DE03F492831884208D13D4908394968B5
:1012E00041F470613A4A083A516070E038493C3143
:1012F000884208D136490839496841F47041344A76
:10130000083A516063E032495031884208D130498F
:101310000839496841F470212D4A083A516056E075
:101320002B496431884208D129490839496841F478
:101330007001274A083A516049E0254978318842CE
:1013400008D123490839496841F07061204A083AB8
:1013500051603CE01F49884206D1011F096841F0F5
:101360000F01021F116032E01A491431884208D17E
:101370001849091F096841F0F001164A121F11604F
:1013800025E014492831884208D11249091F09680B
:1013900041F470610F4A121F116018E00D493C3191
:1013A000884208D10B49091F096841F47041094A74
:1013B000121F11600BE007495031884207D10549DF
:1013C000091F096841F47021024A121F1160704719
:1013D00008000240080402400146486880B2704795
:1013E00010B50022026847F6F0739A430C6A8B68C6
:1013F00023430C6923434C6923438C692343CC6901
:1014000023434C6A23438C6A23431A430260CB680C
:1014100043600B6883604B68C36010BD41607047D8
:101420007047000070B504460F480078A0B10F481F
:10143000007888B90E480088844206DB0C48008892
:1014400094FBF0F5284607F05FFE0948008894FBFE
:10145000F0F100FB114084B24FF47A7104FB01F00B
:1014600000F008F870BD0000A80A0020A00A0020C3
:10147000420A00202DE9F047074600264FF0E02001
:10148000D0F814901148007807FB00F800BF07F06F
:1014900031FE4FF0E020856911E04FF0E0208469D3
:1014A000AC420CD0AC4202D2281B064403E0A9EBAC
:1014B0000400284406442546464500D300E0ECE7F6
:1014C00000BF07F01CFEBDE8F0870000400A0020C6
:1014D00010B5012000F082F820B101200249087007
:1014E00000F064F810BD00002B0A002010B50820A1
:1014F00000F074F8F8B101200F4908700F48007827
:10150000012808D10E48007828B901200D4908703B
:1015100000200D49087009480078052808D10848BE
:10152000007828B901200749087000200649087092
:10153000082000F03BF810BD2A0A002066000020B9
:1015400064000020680000206C00002010B510200E
:1015500000F044F8F8B100200F4908700F480078F7
:10156000042808D10E48007828B901200D490870D8
:1015700000200D49087009480078072808D108485C
:10158000007828B901200749087000200649087032
:10159000102000F00BF810BD2A0A00206600002081
:1015A00064000020680000206C00002001490860F1
:1015B0007047000014040140002006490860091D1E
:1015C0000860091D0860091D0860034801491431BD
:1015D0000860704700040140FFFF0F000146002033
:1015E0000022074B1B6803EA0102054B14331B68FA
:1015F0000B4013B10AB1012000E000207047000049
:1016000000040140002123498279002A3AD00A4689
:10161000126803689A430B461A600A1D1268036831
:101620009A430B1D1A60027911440A6803681A4331
:101630000A60184A0832126803689A43154B083347
:101640001A601A1D126803689A43124B0C331A6011
:101650004279102A0ED11A1F126803681A430D4BE3
:1016600008331A601A1D126803681A43094B0C33B9
:101670001A600DE00749427911440A6803681A4369
:101680000A6005E0027911440A6803689A430A6017
:10169000704700000004014030B500228B071C0F8A
:1016A0000F2303FA04F20B4B8C1053F824309343AE
:1016B000084C8D1044F8253023468C1053F8243004
:1016C0008C07240F00FA04F42343024C8D1044F8D5
:1016D000253030BD080001402DE9F04102460025CB
:1016E0000026002000230024002791F803C00CF0FE
:1016F0000F0591F803C00CF0100CBCF1000F03D0E3
:1017000091F802C04CEA050591F800C0BCF1000F49
:1017100031D0146800202BE04FF0010C0CFA00F3DC
:10172000B1F800C00CEA03069E4220D183004FF0BE
:101730000F0C0CFA03F7BC4305FA03FC4CEA040453
:1017400091F803C0BCF1280F06D14FF0010C0CFA40
:1017500000FCC2F814C00AE091F803C0BCF1480FC5
:1017600005D14FF0010C0CFA00FCC2F810C0401C6F
:101770000828D1D31460B1F800C0BCF1FF0F34DDEC
:10178000546800202EE000F1080C4FF0010808FA20
:101790000CF3B1F800C00CEA03069E4221D183008D
:1017A0004FF00F0C0CFA03F7BC4305FA03FC4CEAAC
:1017B000040491F803C0BCF1280F05D100F1080C16
:1017C00008FA0CF8C2F8148091F803C0BCF1480F75
:1017D00007D100F1080C4FF0010808FA0CF8C2F824
:1017E0001080401C0828CED35460BDE8F08102462A
:1017F000002093680B400BB1012000E000207047EF
:10180000416170470161704710B500F005F910BDE6
:1018100010B5002400F0BAF9462000F07BF900F082
:10182000FDF920B100F0D6F925A006F0AFFE0120A9
:1018300000F070F900F0F2F920B100F0CBF923A02C
:1018400006F0A4FE00F0C6F900F0A0F9462000F072
:1018500061F900F0E3F920B100F0BCF918A006F03E
:1018600095FE102000F056F900F0D8F908B100F00C
:10187000B1F900F0AFF9B420FFF7D4FD00F086F91C
:10188000472000F047F900F0C9F920B100F0A2F9B3
:1018900011A006F07BFE00F0DFF80446002000F007
:1018A0008BF84FF6FF7000EA042400F0D5F80443EB
:1018B000012000F081F800F08DF9204610BD0000F5
:1018C00031CEDED3A6B4F00A0000000032CEDED363
:1018D000A6B4F00A0000000033CEDED3A6B4F00AAE
:1018E000000000002DE9F0410024FFF791FF0546BC
:1018F000FEF7A2FE04462046FEF7A3FE05464FF083
:101900003332054BFEF729FE0746FEF7ADFE0446CF
:101910002046BDE8F08100003333F33F10B5FFF7F8
:10192000E1FF0C49086000F021FB0B4908600B48FF
:10193000FFF748FC05F0C8FF0446094906F022FC01
:1019400041231A22044801680248006808F0E4FEB6
:1019500010BD000048000020440000203C00002092
:101960007C0E002000BFFEE708B50121102005F025
:10197000CDFE04208DF803000002ADF80000032026
:101980008DF8020069460B48FFF7A6FE10208DF87F
:101990000300C001ADF8000003208DF80200694685
:1019A0000448FFF799FE4FF400610248FFF728FF53
:1019B00008BD00000010014010B5044600F094F886
:1019C0004FF400511348FFF71BFF4FF480411148BB
:1019D000FFF716FF2CB14FF480410E48FFF712FFBE
:1019E00004E04FF480410B48FFF70AFF0520FFF7A2
:1019F00041FD4FF400510748FFF704FF0520FFF7B2
:101A000039FD4FF400510348FFF7FAFE0520FFF7B8
:101A100031FD10BD0018014008B50121402005F03E
:101A200075FE10208DF8030003208DF8020040039E
:101A3000ADF8000069460748FFF74EFE4FF48041BD
:101A40000448FFF7DFFE4FF400510248FFF7DAFECB
:101A500008BD00000018014070B50024002500F00A
:101A60002DF84FF400511448FFF7CAFE0520FFF788
:101A700001FD1DE04FF400510F48FFF7C3FE0520A4
:101A8000FFF7F8FC4FF480410B48FFF7B0FE012848
:101A900004D1C4F1070188402843C5B24FF4005176
:101AA0000548FFF7ADFE0520FFF7E4FC601CC4B25B
:101AB000082CDFDB284670BD0018014008B5012165
:101AC000402005F023FE48208DF8030003208DF808
:101AD00002004FF48040ADF8000069460148FFF76E
:101AE000FBFD08BD0018014008B50121402005F0AC
:101AF0000DFE10208DF8030003208DF802004FF436
:101B00008040ADF8000069460148FFF7E5FD08BDDB
:101B10000018014070B505460024FFF7E5FF4FF4BB
:101B200080411948FFF76CFE4FF400511648FFF74B
:101B300067FE25E0C4F1070101208840284028B154
:101B40004FF480411048FFF75DFE04E04FF4804100
:101B50000D48FFF755FE0520FFF78CFC4FF40051B0
:101B60000948FFF74FFE0520FFF784FC4FF40051B2
:101B70000548FFF745FE0520FFF77CFC601CC4B25A
:101B8000082CD7DB70BD00000018014010B5FFF72E
:101B9000ABFF4FF480410E48FFF734FE4FF4005185
:101BA0000B48FFF72FFE0520FFF764FC4FF4804140
:101BB0000748FFF725FE0520FFF75CFC4FF40051B6
:101BC0000348FFF71DFE0520FFF754FC10BD000081
:101BD0000018014010B5FFF787FF4FF480410E4811
:101BE000FFF70EFE4FF400510B48FFF709FE0520EA
:101BF000FFF740FC4FF400510748FFF703FE0520B4
:101C0000FFF738FC4FF480410348FFF7FBFD052048
:101C1000FFF730FC10BD00000018014010B5FFF7C1
:101C20004DFF4FF400511148FFF7EAFD0520FFF783
:101C300021FC4FF400510D48FFF7E4FD0520FFF7AC
:101C400019FC4FF480410948FFF7D1FD012801D16B
:101C5000012400E000244FF400510448FFF7D0FDB8
:101C60000520FFF707FC204610BD000000180140CA
:101C70004CF6CC400149086070470000003000403D
:101C80004AF6AA2001490860704700000030004071
:101C900001494860704700000030004001498860F9
:101CA00070470000003000400149086070470000A4
:101CB0000030004010B57D2005F0ACFD28B10CA02F
:101CC00006F064FC05F032FD02E010A006F05EFCB8
:101CD00045F25550FFF7E8FF0620FFF7D9FF4FF414
:101CE0001C70FFF7DBFFFFF7CBFFFFF7C1FF10BD55
:101CF00053797374656D2052657365742049732040
:101D0000427920495744470A000000005379737410
:101D1000656D2052657365742049732042792055A2
:101D20007365720A000000001FB50121042005F050
:101D3000EDFC0121402005F0E9FC0121084605F0F9
:101D4000E5FC1820ADF8040048208DF8070001A933
:101D50002C48FFF7C1FC0120ADF8040028208DF8C5
:101D6000070001A92848FFF7B7FCFFF725FC04216D
:101D70000846FFF791FC03210420FFF78DFC0021AA
:101D80000846FFF789FC1020029000208DF80C0017
:101D90000C208DF80D0001208DF80E0002A8FFF731
:101DA00031FC0820029002A8FFF72CFC01200290D1
:101DB00008208DF80D0002A8FFF724FC1020FFF783
:101DC000F5FB0820FFF7F2FB0120FFF7EFFB0A20ED
:101DD0008DF8000001208DF801008DF802008DF8CB
:101DE0000300684600F070FD09208DF80000684689
:101DF00000F06AFD06208DF80000684600F064FDE2
:101E00001FBD0000001801400008014008B5012175
:101E1000082005F07BFC10208DF8030003208DF8CE
:101E200002002020ADF8000069460448FFF754FC8A
:101E300020210248FFF7E6FC08BD0000000C01402D
:101E400008B50121402005F061FC10208DF8030049
:101E500003208DF802002020ADF8000069460448F8
:101E6000FFF73AFC20210248FFF7CCFC08BD000038
:101E70000018014010B5FFF7E3FFFFF7C7FF10BDE3
:101E800010B50446412C24D108210846FFF722F959
:101E90003D21112006F062FB8621172006F05EFB33
:101EA0007F21262006F05AFB1E212D2006F056FB2E
:101EB00000212C2006F052FB8D212A2006F04EFB3B
:101EC0003E212B2006F04AFB0220FFF7D3FA05F053
:101ED000F7F910BD00B587B00121480205F016FCE6
:101EE0000121082005F012FC4FF4004005F0E2FB50
:101EF0000220ADF8180000208DF81B0006A9194833
:101F0000FFF7EAFB002001908DF808008DF809002A
:101F10004FF4602003900020049001208DF81400FD
:101F200001A91148FEF740FF01210F48FEF710FFFD
:101F30000D48FEF7BDFF00BF0B48FEF72BFF002842
:101F4000FAD10948FEF7C4FF00BF0748FEF70BFFB0
:101F50000028FAD10523012209210348FEF74CFF8E
:101F600007B000BD000C0140002401402DE9F04FF6
:101F700089B0002501213748FEF79FFF00BF0221ED
:101F80003448FEF7FEFE0028F9D000270FE0314864
:101F9000FEF7F3FE8346FEF74FFB80462946FEF729
:101FA000A2F905460520FFF73DFA781CC7B20A2FB3
:101FB000EDDB29492846FEF720FA05462749284641
:101FC000FEF7E9F907464FF08B41FEF716FA044693
:101FD0002046FEF736FB0022214BCDE90201FEF739
:101FE0004AFA0746884621461C48FEF7CEF9834642
:101FF000FEF727FB3A464346CDE90401FEF7ADFA6A
:10200000CDE90601FEF730FB0646DFF85890304672
:10201000FEF717FBCDE902014846FEF712FB074623
:10202000114A124BFEF727FACDE90001DDE9022340
:10203000FEF793FA4FF060420D4BCDE9040107F033
:102040002BFACDE90601FEF70FFB8246504609B098
:10205000BDE8F08F00240140000020410000A040B6
:102060000000E03FE17AD440A089B0E1E9152740C3
:10207000F0F4E43F00BFFEE710B53448007858B9EB
:1020800033480078401C324908700846007802281E
:1020900011DD012008700EE02C48007801280AD1DB
:1020A0002B480078401E2A4908700846007801280D
:1020B00001DA0220087002202449087024480078C0
:1020C000012802D002281AD10CE0102321A20221FB
:1020D000184600F08FFE10231FA20421184600F0BE
:1020E00089FE0CE010231BA20421184600F082FE9A
:1020F000102319A20221184600F07CFE00BF00BF89
:102100001648007800BB00220221202000F0A8FD24
:1021100001220221302000F0A3FD022211464020BE
:1021200000F09EFD03220221502000F099FD0422C0
:102130001146202000F094FD05220421302000F0FB
:102140008FFD01200549087010BD000067000020C8
:10215000650000203E3E0000202000006C000020B2
:1021600010B59D48007870B99C480078401C9B4988
:10217000087008460078072817DD01200870002045
:102180009749087011E09448007801280DD19348D0
:102190000078401E9149087008460078012804DA4A
:1021A0000720087000208E49087002208A490870B4
:1021B0008A48007805287DDAFEF77EFF8748007898
:1021C000012806D0022811D0032822D0042840D1AB
:1021D00032E0102383A20021184600F00BFE1023EA
:1021E00081A20221184600F005FE32E010237EA2F3
:1021F0000021184600F0FEFD10237AA202211846A5
:1022000000F0F8FD102378A20421184600F0F2FD3A
:102210001FE0102374A20221184600F0EBFD1023EA
:1022200070A20421184600F0E5FD10236EA20621DD
:10223000184600F0DFFD0CE010236BA204211846C5
:1022400000F0D8FD102367A20621184600F0D2FD49
:1022500000BF00BF62480078002854D10822002146
:10226000202000F0FDFC09220021302000F0F8FCC5
:1022700006220021402000F0F3FC0722002150201C
:1022800000F0EEFC0A220221202000F0E9FC0B22E3
:102290000221302000F0E4FC06220221402000F060
:1022A000DFFC07220221502000F0DAFC0C2204217E
:1022B000202000E028E000F0D3FC0D220421302093
:1022C00000F0CEFC06220421402000F0C9FC0722C9
:1022D0000421502000F0C4FC0E220621202000F032
:1022E000BFFC0F220621302000F0BAFC0622114666
:1022F000402000F0B5FC07220621502000F0B0FC81
:1023000001203749087066E0FEF7D6FE33480078B2
:10231000052804D006280FD007282DD11FE0102350
:1023200030A20021184600F065FD10232EA20221E4
:10233000184600F05FFD1FE010232BA20021184675
:1023400000F058FD102327A20221184600F052FD8C
:10235000102325A20421184600F04CFD0CE01023A8
:1023600021A20221184600F045FD10231DA20421E0
:10237000184600F03FFD00BF00BF1948007850BB71
:1023800010220021202000F06BFC112200213020BF
:1023900000F066FC15220021402000F061FC1222B2
:1023A0000221202000F05CFC13220221302000F0EA
:1023B00057FC15220221402000F052FC0422114655
:1023C000202000F04DFC05220421302000F048FCC4
:1023D00001200349087010BD67000020660000203E
:1023E0006C0000203E3E00002020000008B5294877
:1023F000007848B928490978491E284A02EB81002B
:102400000168491C01600CE022480078012808D1CD
:1024100021490978491E214A02EB81000168491EC1
:10242000016002201B4908701B4800784000801D95
:10243000C2B20321202000F013FC174800784000AE
:10244000C01DC2B20321302000F00AFC0622032185
:10245000402000F005FC07220321502000F000FC82
:10246000102000900C480078401E0C4951F82020A4
:1024700004230521302000F079FC09480078012868
:1024800006D100F083FA002006490870044908705C
:1024900008BD00006700002066000020200000202A
:1024A0002B0A00206400002008B53748007858BB8C
:1024B0001D220021084600F0D3FB1E22002110201F
:1024C00000F0CEFB314806237F220221009000203D
:1024D00000F07BFA0C220621002000F0C1FB0D2247
:1024E0000621102000F0BCFB0E220621402000F047
:1024F000B7FB0F220621502000F0B2FB22480078E3
:10250000401C2149087026E01F480078012822D18C
:102510001D220021084600F0A3FB1E2200211020EE
:1025200000F09EFB0C220621002000F099FB0D22FA
:102530000621102000F094FB0E220621402000F01E
:102540008FFB0F220621502000F08AFB0E480078F6
:10255000401C0D49087010230D4A0621202000F070
:1025600049FC10230B4A0621602000F043FC102395
:10257000094A0021202000F03DFC0848006902289B
:1025800001D000F00DF808BD690000202D080020E2
:10259000FC0C00207C0D0020FC0D00202000002001
:1025A00010B5FEF789FD3E480069012807D13D4876
:1025B000007820B907F0CAFD01203A490870384870
:1025C0000069012834D114220321202000F048FBA7
:1025D00015220321302000F043FB16220321402066
:1025E00000F03EFB17220321502000F039FB202190
:1025F0002D48FFF705F920212C48FFF703F92C4857
:10260000007801282ED10020294908700220244991
:10261000086101202749087000F0B8F90020264918
:1026200008702649087020211F48FFF7EBF819E0D1
:102630001B480069B0B918220321302000F010FBBC
:1026400019220321402000F00BFB1A220321502005
:1026500000F006FB20211548FFF7D2F82021124890
:10266000FFF7D0F815480078401C14490870084658
:1026700000780A2813DD002008700220084908614C
:1026800000F084F900200C49087020210748FFF76A
:10269000B9F820210448FFF7B5F807F07FFD10BD19
:1026A000200000206B00002000180140000C0140B9
:1026B0002B0A00201D000020690000206A00002075
:1026C00010B5FEF7F9FC06F007FE7348007858BB1A
:1026D000FFF7D2FC71480078012812D170480078C9
:1026E00001280ED16C49087000206C4908706D49B2
:1026F000087000F04BF900206B4908706B490870B6
:10270000C9E0664800780128FAD1654800780228B7
:10271000F6D10020614908706549087000F036F96B
:10272000002061490870B6E05B480078A0B35D48BE
:10273000007888BBFFF714FD58480078012813D1B2
:102740005C48007807280FD100205349087053498E
:1027500008700120534908705649087000205249FA
:10276000087000F013F996E04C4800780128C7D1B2
:10277000504800780028C3DD4E4800780728BFDAAB
:10278000002046490870012046490870002046494B
:10279000087000F0FBF87EE0FFE73F48007868B182
:1027A0004048007850B143480078002806DD414891
:1027B0000078052802DAFFF719FE6CE03648007849
:1027C000002868D037480078002864D0394800785D
:1027D000042860DD3748007807285CDA354800783F
:1027E00005282AD10120344948612F48007890B942
:1027F00010220321202000F033FA1122032130207F
:1028000000F02EFA10232DA20321402000F0F2FA4E
:102810000120254908702148007801283BD100207B
:102820001E4908701F490870022023494861002092
:102830001D49087000F0AAF82DE01E48007806280F
:1028400029D100201C4948611748007890B912220C
:102850000321202000F004FA13220321302000F08D
:10286000FFF9102315A20321402000F0C3FA012034
:102870000D4908700948007801280CD1002007494B
:1028800008700849087002200B4948610020064979
:10289000087000F07BF810BD630000202B0A0020B8
:1028A00065000020640000206C000020690000200A
:1028B0001D00002066000020200000202E2E2E2E5D
:1028C0002E2E00007047000070B5002100230F225B
:1028D000C47804B3154C246804F4E064C4F5E064DF
:1028E000210AC1F10403CA40447804FA03F1847850
:1028F0001440214309010E4C0678A155047804F0D8
:102900001F050124AC4005786D11AD0005F1E025EF
:10291000C5F8004109E0047804F01F050124AC402B
:10292000044D0678761145F8264070BD0CED00E0A8
:1029300000E400E080E100E002490143024A116046
:10294000704700000000FA050CED00E010B500F043
:102950008DF84FF400610C48FEF754FF4FF480519E
:102960000948FEF74FFF0520FEF784FD4FF4805124
:102970000548FEF745FF0520FEF77CFD4FF400619A
:102980000148FEF73DFF10BD0018014070B500245E
:1029900018E004F1B000002100F049FA00210846D7
:1029A00000F045FA0021102000F041FA002505E072
:1029B0000121002000F03BFA681CC5B2802DF7DB36
:1029C000601CC4B2082CE4DB70BD2DE9F05F064644
:1029D0000F4690461C46DDF828A04FF0000BE1178B
:1029E00004EB5171C910A4EBC10131B92046E117C4
:1029F00004EB5171C1F3C70506E02046E11704EB73
:102A00005171C910491CCDB23D4615E029463046EA
:102A100000F012F9B1460BE059460BF1010B1AF820
:102A20000100012100F003FA09F1010000F0FF09A3
:102A3000C145F1DB681CC5B2A542E7DBBDE8F09FEC
:102A400008B50121402004F061FE4FF48050ADF83C
:102A5000000003208DF8020048208DF8030069462D
:102A60000148FEF739FE08BD0018014008B50121F4
:102A7000402004F04BFE4FF48050ADF800000320DE
:102A80008DF8020010208DF8030069460148FEF71A
:102A900023FE08BD0018014010B5FFF7E7FF4FF413
:102AA00000610C48FEF7ACFE4FF480510948FEF778
:102AB000A7FE4FF400610748FEF7A4FE0520FEF7CD
:102AC000D9FC4FF480510348FEF79CFE0520FEF729
:102AD000D1FC10BD0018014010B5FFF7B1FF4FF455
:102AE00000611148FEF78CFE0520FEF7C3FC4FF491
:102AF00000610D48FEF786FE0520FEF7BBFC4FF493
:102B000080510948FEF773FE012801D1012400E03D
:102B100000244FF400610448FEF772FE0520FEF722
:102B2000A9FC204610BD00000018014008B5012195
:102B3000402004F0EBFD4FF4C050ADF8000003203E
:102B40008DF8020010208DF8030069463948FEF721
:102B5000C3FD4FF44870FEF765FC0021AE2000F085
:102B600066F90021084600F062F90021102000F00B
:102B70005EF90021402000F05AF90021B02000F059
:102B800056F90021812000F052F90021FF2000F0C9
:102B90004EF90021A12000F04AF90021A62000F002
:102BA00046F90021A82000F042F900213F2000F062
:102BB0003EF90021C82000F03AF90021D32000F0AE
:102BC00036F90021084600F032F90021D52000F046
:102BD0002EF90021802000F02AF90021D82000F0F1
:102BE00026F90021052000F022F90021D92000F06B
:102BF0001EF90021F12000F01AF90021DA2000F07E
:102C000016F90021122000F012F90021DB2000F05B
:102C10000EF90021302000F00AF900218D2000F08B
:102C200006F90021142000F002F90021AF2000F085
:102C3000FEF808BD0018014070B504460D4605F1C8
:102C4000B000002100F0F3F8102141EA1410002137
:102C500000F0EDF804F00F00002100F0E8F870BD7E
:102C60002DE9F04180460E46154600273146404684
:102C7000FFF7E2FF00240AE0124A02EB8511085D2B
:102C8000012100F0D4F8781CC7B2601CC4B2102C2B
:102C9000F2DB701CC1B24046FFF7CEFF00240CE00F
:102CA0006900491C074A02EB4111085D012100F04F
:102CB000BEF8781CC7B2601CC4B2102CF0DBBDE8B3
:102CC000F08100006D0000202DE9F04707460E4618
:102CD0009046994600250024A8F12000C5B27F2F18
:102CE00002DD0027B01CC6B2B9F1100F24D1314665
:102CF0003846FFF7A1FF002408E004EB0511194A4C
:102D0000505C012100F093F8601CC4B2082CF4DB85
:102D1000701CC1B23846FFF78FFF002409E004EBB6
:102D2000051108310F4A505C012100F080F8601C49
:102D3000C4B2082CF3DB12E031463846FFF77CFFC3
:102D400000240AE005EB4501074A02EB4101085D5A
:102D5000012100F06CF8601CC4B2062CF2DBBDE867
:102D6000F087000008AA0008E0A700082DE9FF5F2F
:102D7000074691461E460E9D4FF0000A002435E09E
:102D8000301B401EC1B20A2006F07AFBB9FBF0F0FE
:102D90000A21B0FBF1F201FB1208BAF1000F14D1C5
:102DA000701EA04211DDB8F1000F0CD1AB4605EB4F
:102DB000DB71491001FB0471C8B22B462022019936
:102DC000FFF782FF10E04FF0010AAB4605EBDB7125
:102DD000491001FB0471C8B208F13001CAB22B4698
:102DE0000199FFF771FF00BF601CC4B2B442C7DB9A
:102DF000BDE8FF9F2DE9F04104460F461546984671
:102E000000260FE0AA5D434639462046FFF75CFFE7
:102E100004F10800C4B2782C02DD0024B81CC7B24B
:102E2000701CC6B2A85D0028ECD1BDE8F08170B579
:102E300004460D461DB1E0B200F061F802E0E0B2D8
:102E400000F03EF870BD000070B505460024FFF7A5
:102E50000DFE4FF400611948FEF7D2FC4FF480518B
:102E60001648FEF7CDFC00BF25E0C4F107010120A4
:102E70008840284028B14FF480511048FEF7C2FC2A
:102E800004E04FF480510D48FEF7BAFC0520FEF730
:102E9000F1FA4FF400610948FEF7B4FC0520FEF793
:102EA000E9FA4FF400610548FEF7AAFC0520FEF799
:102EB000E1FA601CC4B2082CD7DB70BD00180140D9
:102EC00010B50446FFF742FD7820FFF7BDFF00BFB5
:102ED000FFF702FE0128FBD00020FFF7B5FF00BF7F
:102EE000FFF7FAFD0128FBD02046FFF7ADFF00BF3A
:102EF000FFF7F2FD0128FBD0FFF7CEFD10BD10B5A6
:102F00000446FFF723FD7820FFF79EFF00BFFFF781
:102F1000E3FD0128FBD04020FFF796FF00BFFFF73D
:102F2000DBFD0128FBD02046FFF78EFF00BFFFF737
:102F3000D3FD0128FBD0FFF7AFFD10BD70470000A7
:102F400010B50348006810B101480068804710BD03
:102F50008C0A002070B5044600F0C2F800204849F1
:102F6000087048490870484908704849086048494D
:102F7000086048490870484908704849087048493D
:102F8000086048490860484908604849087048484E
:102F900000680A21B0FBF1F0464908604648006825
:102FA00058B14648056845B14348066803E0761EB7
:102FB000002028602D1D002EF9D100204049086016
:102FC000404908604049086040490860404908603D
:102FD00040490860404908604049087002F01AF909
:102FE00002F018FA204601F075FA208800B170BD91
:102FF000204601F08FFE208800B1F8E7204601F05E
:1030000095FE208800B1F2E7204601F079FF208884
:1030100000B1ECE7204602F02DF9208800B1E6E788
:10302000204602F07DFB208800B1E0E7204602F058
:10303000E7FE208800B1DAE7204601F0D7FD2088BE
:1030400000B1D4E7204601F0E1FB208800B1CEE7D3
:10305000204603F03DFF208800B1C8E7204602F07B
:1030600013FE208800B1C2E7204603F08DFF2088C0
:1030700000B1BCE701F054F9FFF760FF00BFB6E70D
:10308000A00A0020A80A0020F00A0020480B002017
:103090004C0B0020D60A0020D70A0020D80A0020B6
:1030A000E40A0020E80A0020EC0A0020F80A0020C8
:1030B00058B00008F40A002028B0000824B0000826
:1030C000800A0020840A0020880A00208C0A002040
:1030D000900A0020940A0020980A0020260B002065
:1030E0000A4A1168002002E0002204C1401C084A7C
:1030F00012689042F8D3054A1268054B1B6802EB30
:103100008302121F034B1A607047000024B00008AE
:1031100028B00008780A002008480078012800D06C
:10312000704707480078FA2800DBF9E70448007880
:10313000401C0349087000BFF2E70000A80A002005
:10314000A00A002010B500242E480078012800D0E5
:1031500010BD00BFFDF70CF8044600BF2A480078F8
:1031600028B900BF2046FDF707F800BFF0E7264862
:103170000078401E2449087008460078002805DDC4
:1031800000BF2046FCF7F8FF00BFE1E71F480078CA
:10319000002805DD00BF2046FCF7EEFF00BFD7E7A3
:1031A00002F024F81A4908700846007800EB400045
:1031B000184951F820001849086008460068174966
:1031C0000968884205D100BF2046FCF7D5FF00BF43
:1031D000BEE711480068D0F89000401C0E4909680D
:1031E000C1F890000E480068401C0D4908604FF07F
:1031F00080500C49086000BF2046FCF7BDFF00BFAF
:1032000000BFA5E7A80A0020A00A0020F00A0020BD
:10321000D70A00209C3600204C0B0020480B0020D1
:103220001C0B002004ED00E010B5002420480078BD
:10323000002800DD10BD1F480078002800DDF9E7F8
:1032400000BFFCF795FF044600BF01F0CFFF1A490D
:1032500008700846007800EB4000184951F820003B
:10326000174908600846006816490968884205D170
:1032700000BF2046FCF780FF00BFDBE71048006876
:10328000D0F89000401C0E490968C1F890000E4823
:103290000068401C0C4908604FF080500B490860E2
:1032A00000BF2046FCF768FF00BF00BFC2E7000078
:1032B000A00A0020F00A0020D70A00209C36002037
:1032C0004C0B0020480B00201C0B002004ED00E0FC
:1032D00070B5044600251A480078002803DD46F63C
:1032E0006250208070BD17480078012803D045F651
:1032F00089602080F6E714480078FA2803DB45F25D
:1033000009202080EEE700BF00BFFCF731FF054633
:1033100000BFFDF751FE00BF0B480078401C0A4972
:10332000087002F05BF900BFFDF760FE00BF2846A1
:10333000FCF722FF00BF00BF0020208000BFD1E7C4
:10334000A00A0020A80A0020F00A002070B5044658
:10335000002523480078002803DD46F665502080CC
:1033600070BD20480078012803D045F68960208090
:10337000F6E71D48007818B946F664502080EFE75C
:1033800000BF00BFFCF7F4FE054600BFFDF714FECA
:1033900000BF15480078401E1349087008460078A1
:1033A00000280CDD00BFFDF721FE00BF2846FCF71A
:1033B000E3FE00BF00BF46F663502080D0E702F076
:1033C0001BF900BFFDF712FE00BF2846FCF7D4FE34
:1033D00000BF00BFFFF728FF0020208000BFBFE72D
:1033E000A00A0020A80A0020F00A002010B5044618
:1033F00012480078E8B901F0F9FE11490870084652
:103400000078104908700E48007800EB40000E4923
:1034100051F820000D490860084600680C49086012
:10342000012006490870FDF747FC43F699202080EB
:1034300002E045F68A60208010BD0000A80A002046
:10344000D70A0020D60A00209C3600204C0B002012
:10345000480B00202DE9F04107464FF0000800BF5F
:1034600000BFFCF785FE804600BFFDF7A5FD00BF4D
:103470000020474908604749088047490880474974
:10348000086047490860474908604749086047495C
:1034900008604749088100BFFDF7A8FD00BF40460E
:1034A000FCF76AFE00BF00BF00BF00BFFCF760FE74
:1034B000804600BFFDF780FD00BF3E48046800BFA6
:1034C000FDF794FD00BF4046FCF756FE00BF00BF6D
:1034D00026E000BF00BFFCF74BFE804600BFFDF7B3
:1034E0006BFD00BF00207834E0632064206020631F
:1034F000A061A082E0826062A062FDF7A1FD20626F
:10350000783C04F164060020B081D4F8C04000BFCC
:10351000FDF76CFD00BF4046FCF72EFE00BF00BF6C
:10352000002CD6D100BF00BFFCF722FE804600BFB2
:10353000FDF742FD00BF2048056800BFFDF756FDBE
:1035400000BF4046FCF718FE00BF00BF16E000BFFA
:1035500000BFFCF70DFE804600BFFDF72DFD00BF4C
:1035600005F120060020B081AD6900BFFDF73EFDEA
:1035700000BF4046FCF700FE00BF00BF002DE6D1B3
:1035800003F06EFB03F0FCFD00203880BDE8F08105
:10359000BC0A0020B60A0020060B0020180B0020F1
:1035A0002C0B0020380B0020A40A0020E80A002081
:1035B00090360020200B0020DC0A002010B50348C4
:1035C000006810B101480068804710BD900A0020D3
:1035D0002DE9FF4F87B004469046DDE91BA5DDE9E4
:1035E0001496179F0020039095480078002805DD69
:1035F00047F24A1028800BB0BDE8F08F1CB947F2A3
:10360000AD102880F7E7B8F1000F03D147F24F1053
:103610002880F0E71EB946F62F602880EBE789483E
:103620000068874203D246F630602880E3E71698A8
:10363000B84203D346F631602880DCE7B9F1200FA9
:1036400003D346F273202880D5E7B9F1000F06D1E5
:103650007D48844203D046F273202880CBE7B9F13D
:103660001F0F06D17948844203D046F27320288088
:10367000C1E7204602F0D4FB002028800AF00100B8
:1036800090B10AF0020078B105960020069008E09B
:103690000021059801600598001D05900698401CC2
:1036A00006900698B842F3D3169806EB8000049073
:1036B000CDE9007A32464046049B0A9900F094FB1B
:1036C0000590C4F828800A98E0620898206284F87F
:1036D0003790059820600498A06019986065199843
:1036E00018B95B480068A06501E01998A0651A98B0
:1036F00060606662A763A4F83CA04FF0000B08E08E
:10370000002104F17C0040F82B100BF1010000F0C7
:10371000FF0BBBF1000FF3D004F16400189901F026
:1037200065FB204600F09EF800BF00BF00BFFCF71D
:103730001FFD039000BFFDF73FFC00BF4548007828
:10374000401C4449087008460078012801D101F066
:1037500045FF00BFFDF74AFC00BF0398FCF70CFDD6
:1037600000BF00BF00BF94F8370001F05FFD2046A6
:1037700001F098FE204602F009FB37480088401C03
:103780003549088035480078012837D000BF00BF90
:1037900000BFFCF7EDFC039000BFFDF70DFC00BF80
:1037A0002C480078401E2B49087008460078D0B994
:1037B00001F022FF2A48008800280BDD00BFFDF73A
:1037C00015FC00BF0398FCF7D7FC00BF00BF01F059
:1037D000D7FE11E000BFFDF709FC00BF0398FCF71E
:1037E000CBFC00BF08E000BFFDF700FC00BF039862
:1037F000FCF7C2FC00BF00BF00BFFCE600BF00BF7B
:1038000000BFFCF7B5FC039000BFFDF7D5FB00BF80
:1038100010480078401E0F4908700846007808B923
:1038200001F0EAFE00BFFDF7E1FB00BF0398FCF7E3
:10383000A3FC00BF00BF00BFFFF7F6FC00BFDAE645
:10384000A00A002054B00008C83500200035002030
:10385000F40A0020F00A0020240B0020A80A00200F
:10386000B40A002010B504460348006818B1204689
:1038700001490968884710BD800A002070B50446D8
:103880000D46002678480078002803DD47F24E10E8
:10389000288070BD7548844203D147F24C102880BF
:1038A000F7E77348844203D147F24D102880F0E7D0
:1038B0009CB900BF00BFFCF75BFC064600BFFDF7EC
:1038C0007BFB00BF6B48046800BFFDF78FFB00BFA8
:1038D0003046FCF751FC00BF00BF00BF00BF00BF77
:1038E000FCF746FC064600BFFDF766FB00BF6248DA
:1038F0000078401C6049087008460078012801D112
:1039000001F06CFE00BFFDF771FB00BF3046FCF715
:1039100033FC00BF00BF00BF94F8360008282DD24A
:10392000DFE800F004090E10080A0F11204601F02C
:10393000F9FD5EE05DE000BF204603F075F958E058
:1039400000BF00BF00BF204603F06EF994F83400BA
:10395000082810D2DFE800F004070508090A0B0662
:1039600000BF00BF08E000BF00BF00BF00BF20468F
:1039700001F08DFB00E000BF00BF3AE000BF00BFD8
:1039800000BFFCF7F5FB064600BFFDF715FB00BFC7
:1039900039480078401E3849087008460078D0B988
:1039A00001F02AFE3548008800280BDD00BFFDF736
:1039B0001DFB00BF3046FCF7DFFB00BF00BF01F07E
:1039C000DFFD11E000BFFDF711FB00BF3046FCF743
:1039D000D3FB00BF08E000BFFDF708FB00BF304687
:1039E000FCF7CAFB00BF00BF00BF46F62D60288071
:1039F0004FE700BF04F1640001F0D6F9204600F063
:103A000041F8204602F0DAF91D480088401E1C49A2
:103A10000880204602F004FAFF2084F8360000BF38
:103A200000BF00BFFCF7A4FB064600BFFDF7C4FAC9
:103A300000BF11480078401E0F4908700846007802
:103A400008B901F0D9FD00BFFDF7D0FA00BF30463C
:103A5000FCF792FB00BF00BF00BF00202880FFF7EB
:103A6000E3FB00BF15E70000A00A0020003500209E
:103A7000C8350020480B0020F00A0020B40A0020BE
:103A8000240B002010B504460348006818B12046F6
:103A900001490968884710BD840A002010B5044612
:103AA0000348006818B1204601490968884710BDDD
:103AB000880A00202DE9F04780460E4614461D4630
:103AC0004FF000098C480078002805DD46F2AE1062
:103AD00028800020BDE8F0871EB1B6F5004F02D166
:103AE00000E000BF04E045F6256028800020F1E7F3
:103AF00000BF0CB10020206000BF00BFFCF738FB06
:103B0000814600BFFDF758FA00BF7C480068406C52
:103B1000B8B37A480068406C401E78490968486428
:103B200076480068476C1CB174480068006C2060DF
:103B3000FDF786FA71490968096C401A6F490968EE
:103B4000C1F8A4006D480068D0F8A8006B49096866
:103B5000D1F8A410884207D268480068D0F8A400C1
:103B600066490968C1F8A80000BFFDF73FFA00BF29
:103B70004846FCF701FB00BF00BF00202880384604
:103B8000A8E7FFE706F4004068B100BFFDF72EFA92
:103B900000BF4846FCF7F0FA00BF00BF46F2B01085
:103BA0002880002096E75648007800280DDD00BFE9
:103BB000FDF71CFA00BF4846FCF7DEFA00BF00BF65
:103BC00046F663502880002084E700BF4C48007808
:103BD000401C4B49087008460078012801D101F0CB
:103BE000FDFC00BFFDF702FA00BF4846FCF7C4FA2F
:103BF00000BF00BF00BF434607220021084601F076
:103C00008BF900BF00BF00BFFCF7B2FA814600BFCE
:103C1000FDF7D2F900BF3A480078401E38490870D5
:103C20000846007808B901F0E7FC00BFFDF7DEF9AF
:103C300000BF4846FCF7A0FA00BF00BF00BFFFF777
:103C4000F3FA00BF00BFFCF793FA814600BFFDF70F
:103C5000B3F900BF2948006890F8350020B1012869
:103C600026D0032834D12CE0FCB124480068006C35
:103C70002060FDF7E5F921490968096C401A1F49E0
:103C80000968C1F8A4001D480068D0F8A8001B49C5
:103C90000968D1F8A410884207D218480068D0F803
:103CA000A40016490968C1F8A8000020288013E084
:103CB0001CB112480068006C206046F2A9102880F0
:103CC0000AE00CB10020206047F2D920288003E0F0
:103CD00046F62E60288000BF00BF08480068476C89
:103CE00000BFFDF783F900BF4846FCF745FA00BF67
:103CF00000BF3846EEE60000A00A0020480B002076
:103D0000F00A00202DE9F04705460E4617461C46EE
:103D10004FF0000A32480078002804DD47F25910BD
:103D20002080BDE8F0871EB946F2D5202080F8E754
:103D30001FB946F2D5202080F3E700BF00BFFCF793
:103D400017FA824600BFFDF737F900BF0DB92548C5
:103D50000568286878B900BFFDF748F900BF5046EC
:103D6000FCF70AFA00BF00BF00203060386047F25D
:103D700052102080D5E795F83C0000F0010078B99A
:103D800000BFFDF733F900BF5046FCF7F5F900BF5F
:103D900000BF00203060386047F254102080C0E738
:103DA00000BFFDF723F900BF5046FCF7E5F900BF5F
:103DB00000BF4FF00008D5F8249003E009F1040992
:103DC00008F10108D9F800000028F7D0C6F80080F3
:103DD000A86BA0EB080038600020208000BFA0E79F
:103DE000A00A0020480B0020F0B50446DDE9055686
:103DF00002EB85004FF0807C071F3846C7F800C0F3
:103E0000071F38463C60DFF89CC0071F3846C7F8DC
:103E100000C04FF0123C071F3846C7F800C04FF0F3
:103E2000033C071F3846C7F800C04FF0023C071F8D
:103E30003846C7F800C0071F38463B60071F3846A2
:103E400039604FF0113C071F3846C7F800C04FF0EB
:103E5000103C071F3846C7F800C04FF0093C071F49
:103E60003846C7F800C04FF0083C071F3846C7F86F
:103E700000C04FF0073C071F3846C7F800C04FF09E
:103E8000063C071F3846C7F800C04FF0053C071F27
:103E90003846C7F800C04FF0043C071F3846C7F843
:103EA00000C0F0BDF562000870B52448006810B18C
:103EB000224800688047FDF7C3F8044620480068A0
:103EC00020490968884215D01D480068D0F898003C
:103ED000201A1B490968C1F8940019480068D0F8F5
:103EE0009C0017490968D1F89410084414490968DE
:103EF000C1F89C0013480068C0F89840FDF730F8FE
:103F000005460F480068D0F8B400A84203D20C4818
:103F10000068C0F8B4500A480068D0F8B8000A49F0
:103F20000968884205D20848006805490968C1F84F
:103F3000B80000200449086070BD0000940A002009
:103F4000480B00204C0B0020EC0A00202DE9F0412A
:103F500005460E46144600274D480078002804DD2B
:103F600047F275202080BDE8F0814A48007800289B
:103F700003DD46F663502080F5E736B1022E05D00A
:103F8000042E0AD0082E09D101E000BF00BF1DB9E0
:103F900047F27E202080E6E704E003E045F6256056
:103FA0002080E0E700BF00BF00BF00BFFCF7E0F8E3
:103FB000074600BFFDF700F800BF36480078401CF8
:103FC0003449087008460078012801D101F006FB49
:103FD00000BFFDF70BF800BF3846FCF7CDF800BF77
:103FE00000BF00BF01202C49096881F83600234634
:103FF000324629462848006802F038FD2088F0B192
:1040000000BF00BF00BFFCF7B3F8074600BFFCF7D6
:10401000D3FF00BF1F480078401E1E4908700846A5
:10402000007808B901F0E8FA00BFFCF7DFFF00BF35
:104030003846FCF7A1F800BF00BF00BF93E7164861
:10404000006801F06FFA00BF00BF00BFFCF790F8F6
:10405000074600BFFCF7B0FF00BF0E480078401EC7
:104060000C4908700846007808B901F0C5FA00BF8D
:10407000FCF7BCFF00BF3846FCF77EF800BF00BF6E
:1040800000BFFFF7D1F80020208000BF6BE70000E1
:10409000A00A0020F00A0020480B00202DE9FF5F55
:1040A00005460E4617469846DDE90EA4002000900E
:1040B00081480078002804DD47F275202080BDE8A3
:1040C000FF9F7E480078002803DD46F6635020807D
:1040D000F5E70AF00E0BBBF1000F09D0BBF1020FA0
:1040E00007D0BBF1040F10D0BBF1080F0ED101E0D7
:1040F00000BF00BFB8F1000F06D12FB926B91DB916
:1041000047F27E202080DAE704E003E045F62560F0
:104110002080D4E700BF2AF01E0008B1012000E093
:10412000002003900398012803D145F625602080E4
:10413000C5E7CAF3001002900298C0B9B8F57A7FBB
:1041400003D347F27B202080B9E73B2F03DD47F202
:104150007A202080B3E73B2E03DD47F279202080D0
:10416000ADE7632D12DD47F278202080A7E742F209
:104170000F70864203DD47F2792020809FE7B5F576
:104180007A7F03DB47F27820208098E74C48D0F80C
:1041900000904FF4FA70B0FBF9F0404400FB09F0D6
:1041A0004FF47A71B0FBF1F14FF461606843C6EBF4
:1041B000061200EB8200384400FB091001900198C0
:1041C000002873D000BF00BF00BFFBF7D1FF0090F5
:1041D00000BFFCF7F1FE00BF38480078401C3749AB
:1041E000087008460078012801D101F0F7F900BFF6
:1041F000FCF7FCFE00BF0098FBF7BEFF00BF00BF4E
:1042000000BF01202F49096881F8360023465A462D
:104210002C480199006802F029FC2088F0B100BF09
:1042200000BF00BFFBF7A4FF009000BFFCF7C4FE77
:1042300000BF22480078401E2049087008460078D8
:1042400008B901F0D9F900BFFCF7D0FE00BF009813
:10425000FBF792FF00BF00BF00BF30E719480068BE
:1042600001F060F900BF00BF00BFFBF781FF0090C5
:1042700000BFFCF7A1FE00BF10480078401E0F49A8
:1042800008700846007808B901F0B6F900BFFCF7DD
:10429000ADFE00BF0098FBF76FFF00BF00BF00BF7F
:1042A000FEF7C2FF0020208003E0FFE747F27E20F8
:1042B000208000BF03E70000A00A0020F00A0020D1
:1042C00058B00008480B002010B586B000F01EF86A
:1042D000FCF7B6FE044605A800210091CDE90114C3
:1042E00003900748007800EB4000064A02EB80018B
:1042F00000231A46044800F0C1FA06B010BD0000C1
:10430000D60A00209C3600205449434B10B5034880
:10431000006810B101480068804710BD980A00206D
:10432000254A2649264A274A2749284A2848294A09
:10433000294A2A4A2A4A2B482B482C482C4A2D48DD
:104340002D4A2E482E4A2F482F4830483048314AAF
:10435000314A324A3248334A334A3448344835487D
:104360003548364836483748374A384A384A394A4D
:1043700039483A483A483B4A3B4A3C4A3C483D481F
:104380003D483E493E483F4A3F4A404A404A414AEA
:10439000414A424A4248434A434A44484448454ABB
:1043A000454A4648464A474A47484848484800BF61
:1043B00000BF00BF704700009CB0000804B20008B6
:1043C0009DB000089EB00008A0B00008A4B000088E
:1043D000A8B00008A5B00008D0B00008D1B000080F
:1043E000D2B00008D4B00008D6B00008D8B0000899
:1043F000DAB00008DCB00008FCB00008FEB000082D
:1044000000B1000802B1000804B1000806B10008BC
:1044100008B1000834B1000835B1000836B1000811
:1044200038B100083AB100083BB100083CB10008BF
:104430003EB1000840B1000842B1000844B1000894
:1044400046B1000848B1000878B1000879B1000809
:104450007AB100087BB100087CB100087EB1000889
:1044600080B10008A8B10008A9B10008AAB10008ED
:10447000ABB10008ACB10008AEB10008B0B10008A3
:10448000B4B10008B5B10008B6B10008B7B1000872
:10449000B8B10008B9B10008BAB10008BBB1000852
:1044A000BCB10008BEB10008BFB10008C0B100082F
:1044B000C2B10008C4B10008C5B10008C8B1000805
:1044C000FCB10008FDB10008FEB1000800B2000810
:1044D00002B200080021034A1160034A11800180E2
:1044E00070470000C00A0020C40A00202DE9F04FE8
:1044F00085B00446894692469B46DDF83880002008
:10450000009000BF00BFFBF733FE009000BFFCF738
:1045100053FD00BFBAF1000F0AD0BAF1010F0DD060
:10452000BAF5004F05D06FF40040504460B906E082
:1045300000BF206A40EA0900206216E000BF206A3E
:1045400020EA0900206210E000BFFCF74FFD00BF29
:104550000098FBF711FE00BF00BF45F62560A8F8E4
:104560000000002005B0BDE8F08F00BFC4F824B003
:1045700004F1080001900198008968B900BFFCF7B8
:1045800035FD00BF0098FBF7F7FD00BF00BF00201E
:10459000A8F80000206AE5E700BF71480078401CD9
:1045A0006F49087008460078012801D101F016F81B
:1045B00000BFFCF71BFD00BF0098FBF7DDFD00BF4F
:1045C00000BF00BF01980768BD6889E07868029065
:1045D00095F8880000F00F0003900398012821D07F
:1045E00002282ED0042802D0082836D10EE0206AF6
:1045F000D5F8801000EA0106D5F88000B04204D159
:104600005A463146284600F0AFF863E0206AD5F8F4
:10461000801000EA010626B15A463146284600F0CD
:10462000A3F857E0D5F88000216A20EA0106D5F802
:104630008000B04204D15A463146284600F094F832
:1046400048E0D5F88000216A20EA010626B15A46E2
:104650003146284600F088F83CE000BF00BF00BFAC
:10466000FBF786FD009000BFFCF7A6FC00BF3C48AE
:104670000078401E3A49087008460078D0B900F02A
:10468000BBFF3848008800280BDD00BFFCF7AEFCFC
:1046900000BF0098FBF770FD00BF00BF00F070FF87
:1046A00011E000BFFCF7A2FC00BF0098FBF764FD1F
:1046B00000BF08E000BFFCF799FC00BF0098FBF7C3
:1046C0005BFD00BF00BF00BF43F6FF20A8F800005D
:1046D000002047E700BF029F0FB1BD6800E0002542
:1046E000002D7FF473AF00BF00BF00BFFBF740FD9C
:1046F000009000BFFCF760FC00BF19480078401E26
:10470000174908700846007808B900F075FF00BF27
:10471000FCF76CFC00BF0098FBF72EFD00BF00BF4C
:1047200000BF0AF4004008B9FEF77EFD00BF00BFDD
:10473000FBF71EFD009000BFFCF73EFC00BF206AA7
:10474000049000BFFCF752FC00BF0098FBF714FD7B
:1047500000BF00BF0020A8F80000049802E7000096
:10476000F00A0020B40A002070B504460E46154633
:1047700034342665002060702070E560A078343CF9
:10478000082816D2DFE800F0040508090706101112
:1047900000BF00BF00BF0DE000BF204601F0DEFCFF
:1047A000002084F8360005E000BF042084F83600BD
:1047B00000E000BF00BF204600F069FC70BD0000B3
:1047C000002400BF1DE000BF00BFFBF7D1FC044682
:1047D00000BFFCF7F1FB00BF0A480068401C094914
:1047E000086009480068401C0749086000BFFCF7E2
:1047F000FDFB00BF2046FBF7BFFC00BF00BFFEF77C
:104800009FFBE0E79C0A0020080B002010B58AB04F
:10481000044600200E4908600B2000210591CDE9D7
:104820000704069108460B4909680B4A12680B4BAE
:104830001B68CDE90132CDE903101F200023084A8F
:1048400008A100900C48FEF7C3FE0AB010BD00009E
:104850009C0A002000B00008FCAF0008F8AF000878
:10486000C147000875432F4F532D494949204964DA
:104870006C65205461736B00003500202DE9F84F02
:1048800004460D4616461F46DDE90BABDDF82890C1
:10489000DDF834800020009000BF00BFFBF768FC0B
:1048A000009000BFFCF788FB00BF2C4800882C4913
:1048B000098888423EDA29480088401C2749088038
:1048C000284800880988884203DA24480088254956
:1048D00008802548006804602348006885602248F5
:1048E0000068C6602048006807821F480068C0F85A
:1048F00014901D480068A0F818A01B480068C0F874
:104900001CB0194800684068174908600120174921
:104910000881174808604860002000F087FC1548AF
:10492000007818B113480078134908700020A8F8DF
:10493000000008E011480088401C1049088044F23B
:104940005360A8F8000000BFFCF750FB00BF0098C0
:10495000FBF712FC00BF00BFBDE8F88FB40A0020CF
:104960000CB00008B60A0020AC0A00209C360020DB
:10497000C8350020D60A0020D80A0020B80A002036
:104980003EB5594800680068584A811A904279D06B
:104990000FDC5749084400283ED056490844A8B1C6
:1049A00055490844002860D05449084400286AD179
:1049B0003FE053480844002850D05249084400289A
:1049C00062D0514908440028F1D110E002A8464DB8
:1049D00000902D68EB69444D2D682A8B424D2D685F
:1049E0006969414D2D68A868FFF780FD7AE002A94A
:1049F0003D480068C0693C4DCDE900012D682B8B16
:104A0000394D2D682A8A384D2D68E968364D2D6854
:104A1000A86800F03BFC65E0334B1B68DA69324B59
:104A20001B68198B304B1B68986802AB00F084FE42
:104A300058E002A92C480068C0692B4DCDE900015F
:104A40002D682B8B284D2D682A8A274D2D68E96803
:104A5000254D2D68A86801F04BFA43E0224909680A
:104A6000886802A901F088FB3CE01F4B1B68DA69EB
:104A70001D4B1B68198B1C4B1B68986802AB01F01F
:104A800045FC2FE007E02CE017490968886802A977
:104A900001F010FF26E01D49097801EB41011C4A95
:104AA00002EB810000F0C6FD0F48006802AB002158
:104AB000C269184801F02AFC17480068401E1649D0
:104AC00008600846006858B9144800680860FCF798
:104AD000B7FA044602AB22460021114801F016FC49
:104AE00000E000BF00BF3EBDB00A00205449434B68
:104AF000ADBAB2BE0DF90BFAF2F8F7FF0006F6FFF9
:104B000000F7FDF700FFEFFF03FE0FFED80A0020BD
:104B10009C360020E4380020440B0020400B00208D
:104B2000AC390020002700BF56E0002652E000BF4D
:104B300000BFFBF71DFB074600BFFCF73DFA00BFB7
:104B40002648008898B900202549088108604860F7
:104B500000F07EFB00BFFCF749FA00BF3846FBF7C8
:104B60000BFB00BF00BFFEF75FFB012632E000BF7A
:104B7000FCF73CFA00BF3846FBF7FEFA00BF00BF67
:104B8000FCF75EFA0546FFF7FBFEFCF759FA441BFB
:104B900014480068A04201D21248046000BF00BF60
:104BA000FBF7E6FA074600BFFCF706FA00BF0E481F
:104BB000006840680C49086008480088401E0749A2
:104BC000088000BFFCF712FA00BF3846FBF7D4FAA2
:104BD00000BF00BF002EAAD0A7E70000B40A002043
:104BE0009C360020BC0A0020B00A0020F0B589B035
:104BF00005460020314908803148006820B944F258
:104C00005260288009B0F0BD2E480088022803DADF
:104C100044F254602880F5E700202B4908602848BA
:104C200004682646203600270CE028482060002033
:104C3000A060E060208260612083666020342036BE
:104C4000781C87B21F4800888742EEDB203C1C4856
:104C5000066866601E4806601E48066000201E4901
:104C600008801E4908801E48006818B944F2556043
:104C70002880C7E71B4800681B490968884203D29F
:104C800044F256602880BDE7032000210591CDE95C
:104C90000705069113480068144A1268104B1B68F8
:104CA000CDE90301CDE9013200910B46104A11A173
:104CB0001748FEF78DFC00BFA4E70000B80A0020EB
:104CC00008B000080CB00008BC0A00204E4F4E454A
:104CD000AC0A0020B00A0020B40A0020B60A002066
:104CE00014B000081CB0000854B0000818B0000848
:104CF000254B000875432F4F532D494949204953EF
:104D000052205175657565205461736B0000000079
:104D1000C83500200021034A1160034A1180018038
:104D200070470000C80A0020CC0A002070B5014678
:104D30001A4D2D681DB945F21E750D8070BD184DB8
:104D40002D881DB945F21D750D80F7E7134D2868B4
:104D50002A681032124D2D886D1EACB2002308E077
:104D60000260002545600581C560103010325D1C71
:104D7000ABB2A342F4DB0025056045600581C56048
:104D8000064D2D68074E3560054D2D88B5800025F0
:104D9000F58035810D8000BFD0E7000038B00008F5
:104DA00030B000089036002010B5014648894B8984
:104DB000002B17DD0A680C4B1B6813600A4C4B680C
:104DC00023602346DB884C891B1B074CE38023466A
:104DD0009B884C892344044CA38000234B818B8106
:104DE0000B604B6010BD0000903600200181002256
:104DF0004281828102604260704700002DE9F041EB
:104E00000D46DDE90674B0F80AC0B0F80880C44564
:104E100005DB46F2935CA4F800C0BDE8F081DFF842
:104E2000DCC0BCF804C0BCF1000F04D145F21D7C0D
:104E3000A4F800C0F1E7DFF8C4C0DCF80010DFF828
:104E4000BC80D1F800C0C8F800C0C446BCF804C09B
:104E5000ACF1010CA8F804C0C446BCF806C00CF1C3
:104E6000010CA8F806C0C446BCF808C0B8F8068013
:104E7000C44507DADFF884C0BCF806C0DFF87C80E0
:104E8000A8F808C0B0F80AC0BCF1000F0AD1016050
:104E900041604FF0010CA0F80AC04FF0000CC1F8BF
:104EA00000C017E003F0100CBCF1000F07D106683A
:104EB000316001604FF0000CC1F800C004E0D0F890
:104EC00004C0C1F800C04160B0F80AC00CF1010C88
:104ED000A0F80AC0B0F80CC0B0F80A80C44503DAE4
:104EE000B0F80AC0A0F80CC04D600A81CF604FF046
:104EF000000CA4F800C000BF8FE70000903600202F
:104F00000021034A1160034A1180018070470000AC
:104F1000D00A0020D40A00202DE9F04105460C46B5
:104F200016461F461548006880F834600020134973
:104F3000096881F8350039461048006800F00AFF1A
:104F40006CB104F10808EC60012229460B480068A6
:104F500000F016F82946404600F066F806E000200A
:104F600006490968C8870549096808630348016854
:104F7000204600F019F8BDE8F0810000480B002041
:104F800010B5C287016300230AE000244C600C6066
:104F90000C614C610C83CC61886020315C1CA3B235
:104FA0009342F2DB10BD000030B548B14568C1F84E
:104FB000C45000F10804226893681D6AC56113E0BB
:104FC00091F83450022D02D0072D08D103E007A537
:104FD000C1F8C45007E007A5C1F8C45003E008A514
:104FE000C1F8C45000BF00BF30BD00005461736BF6
:104FF000205100005461736B2053656D0000000068
:105000002000000030B507A5C1F8C45000F1080425
:1050100022681AB193681D6AC56101E001A5C561E6
:1050200030BD000020000000F0B58E6896F83750C3
:1050300007893FB90127078100274F600F60016092
:10504000416023E007897F1C0781026806E09468BD
:1050500094F83770AF4200DD02E05268002AF6D1C2
:1050600000BF32B900274F6043680B605960416050
:105070000CE017682FB9116000270F604A600160CB
:1050800004E013680B604A6059601160F0BD2DE9BF
:10509000F0410446256BE68F0AE0D5F80C8008F154
:1050A00008072946384600F00AF82035701E86B2F7
:1050B000002EF2DC0020E0872063BDE8F08110B50F
:1050C0000489012C03D100240460446011E00C68C1
:1050D00024B94A680024146002600AE04C6824B9CC
:1050E0000B6800245C60436003E00B684A685A6008
:1050F00013600489641E048100244C600C6010BDA0
:105100002DE9F84306460C4617469846089D94F844
:105110003600082850D2DFE800F004050809060729
:105120002B2C00BF00BF00BF47E000BF94F8340045
:10513000032807D143463A4621463046009500F001
:105140003FF803E0E765A4F86080256436B12046A7
:10515000FFF79DFF21463046FFF754FF204600F041
:10516000FDFF00203434A070607004F8340924E09E
:1051700000BF94F83400032807D143463A4621463D
:105180003046009500F01CF803E0E765A4F8608065
:105190002564204601F048FD36B12046FFF777FF31
:1051A00021463046FFF72EFF04203434A070002043
:1051B000607004F8340900E000BF00BFBDE8F88368
:1051C000F0B50446059E086BCD8F0AE0C768A7427C
:1051D00004D1046142610383C66104E020306F1E84
:1051E000BDB2002DF2DC00BFF0BD000070B500259F
:1051F000074C03E005F12000C5B2241D20680028FB
:10520000F8D02068FAF7BFFF2844C5B2284670BD21
:105210007C0A0020002004E00021034A42F820100C
:10522000401C0028F8D070477C0A002030B54209A5
:1052300000F01F030121C3F11F04A140034C54F8E7
:1052400022400C43014D45F8224030BD7C0A00202D
:1052500030B5420900F01F030121C3F11F04A14032
:10526000034C54F822408C43014D45F8224030BD98
:105270007C0A00200021034A1160034A118001804A
:1052800070470000DC0A0020E00A00202DE9F04F02
:1052900085B007468A4693461C460020029000BF10
:1052A00000BF00BFFAF764FF029000BFFBF784FE67
:1052B00000BF56480078401C5449087008460078E2
:1052C000012801D100F08AF900BFFBF78FFE00BF73
:1052D0000298FAF751FF00BF00BF00BF07F10806B0
:1052E000308900284CD104F0100010B94FF00008AC
:1052F00001E04FF01008DDE90E0143465A46CDE9C2
:105300000001514607F12000FFF778FD00BF00BF04
:1053100000BFFAF72DFF029000BFFBF74DFE00BF64
:105320003A480078401E3949087008460078D0B9DC
:1053300000F062F93648008800280BDD00BFFBF75B
:1053400055FE00BF0298FAF717FF00BF00BF00F03C
:1053500017F911E000BFFBF749FE00BF0298FAF70A
:105360000BFF00BF08E000BFFBF740FE00BF029844
:10537000FAF702FF00BF00BF00BF05B0BDE8F08F25
:1053800004F4007008B1358900E00125D6F80090DA
:1053900011E0D9F808000390D9F8040004900E98A1
:1053A0005B465246009038460399FFF7A9FEDDF8A8
:1053B0001090681E85B2002DEBD100BF00BF00BF6A
:1053C000FAF7D6FE029000BFFBF7F6FD00BF0F48CC
:1053D0000078401E0D4908700846007808B900F0B2
:1053E0000BF900BFFBF702FE00BF0298FAF7C4FEFC
:1053F00000BF00BF00BF04F4004008B9FDF714FF70
:1054000000210F98018000BFB7E70000F00A0020DC
:10541000B40A002000210AE001EB4102054B03EB36
:10542000820000220281026042604A1CD1B220291F
:10543000F2D370479C36002010B5044694F837002C
:10544000FFF7F4FE94F8370005490978884203D144
:10545000204600F027F802E0204600F003F810BDD7
:10546000D60A002010B590F8373003EB43030C4CFC
:1054700004EB83010B893BB901230B810023C3603B
:1054800003610860486009E00B895B1C0B810B68B5
:10549000C360002303610A681061086010BD00004A
:1054A0009C36002010B590F8373003EB43030B4CCB
:1054B00004EB83010B893BB901230B810023C360FB
:1054C00003610860486008E00B895B1C0B810023C6
:1054D000C3604A680261D060486010BD9C360020FD
:1054E00010B501460C8924B1012C03D0022C0CD13B
:1054F00001E000BF14E008684A6802610024C4604B
:105500001461D0600A6048600AE008684A68C368AD
:1055100000241C61C4600261D0600B60486000BF61
:1055200000BF10BD2DE9F041054695F8370000EBAE
:105530004000124901EB80042F69EE6887B946B933
:10554000002020812060606095F83700FFF780FE22
:105550000EE02089401E208100203061266007E097
:105560002089401E2081FE600EB9676000E037612F
:1055700000202861E860BDE8F08100009C36002032
:1055800010B5002400BFFAF7F3FD044600BF002069
:105590000D4908700D480E49086008460068D0F8AB
:1055A0009000401C0968C1F890000A480068401C3F
:1055B000084908604FF080500749086000BF204646
:1055C000FAF7DAFD00BF10BDD70A0020C835002069
:1055D0004C0B00201C0B002004ED00E010B504482B
:1055E0000078012803D1FBF72BFD0249086010BDAC
:1055F000F00A0020E40A002010B50A48007880B9BB
:10560000FBF71EFD08490968441A08480068A042D3
:1056100001D20648046006480068A04201D204484E
:10562000046010BDF00A0020E40A0020E80A00200F
:10563000EC0A002070B505460026354800780128A0
:1056400000D070BD00BF00BFFAF792FD064600BF54
:10565000FBF7B2FC00BF2C684CB900BFFBF7C6FCDF
:1056600000BF3046FAF788FD00BF00BFE9E72948D0
:10567000844209D100BFFBF7B9FC00BF3046FAF7FE
:105680007BFD00BF00BFDCE7A06D10B1A06D401E28
:10569000A065A06D48B100BFFBF7A8FC00BF304675
:1056A000FAF76AFD00BF00BFCBE72889022809DAB4
:1056B00000BFFBF79BFC00BF3046FAF75DFD00BF63
:1056C00000BFBEE714480078002809DD00BFFBF7E3
:1056D0008DFC00BF3046FAF74FFD00BF00BFB0E7BA
:1056E0002846FFF7FDFE2C68606D18B90B4800686E
:1056F000A06501E0606DA06500BFFBF777FC00BF0F
:105700003046FAF739FD00BF00BF00BF99E700003F
:10571000F80A002000350020F00A0020F40A0020DA
:105720000021034A1160034A118001807047000084
:10573000FC0A0020000B00202DE9FF5F044688468C
:1057400091461D460020019000BF00BFFAF710FDF2
:10575000019000BFFBF730FC00BF04F10807388957
:10576000002857D10420012804D0022816D004288C
:105770003AD127E0206AFF280FD100BFFBF736FCA3
:1057800000BF0198FAF7F8FC00BF00BF46F6C5500D
:105790002880002004B0BDE8F09F26E04FF6FF719E
:1057A000206A88420DD100BFFBF720FC00BF0198A2
:1057B000FAF7E2FC00BF00BF46F6C5502880002083
:1057C000E8E712E0206A401C68B900BFFBF70EFC56
:1057D00000BF0198FAF7D0FC00BF00BF46F6C550E5
:1057E00028800020D6E700E000BF00BF206A401CF0
:1057F0002062D4F820A0C4F8249000BFFBF7F6FB89
:1058000000BF0198FAF7B8FC00BF00BF0020288055
:105810005046BFE700BF2D480078401C2B49087058
:1058200008460078012801D1FFF7D8FE00BFFBF73A
:10583000DDFB00BF0198FAF79FFC00BF00BF00BF6F
:1058400008F4007008B13E8900E00126D7F800B0E6
:1058500011E0DBF808000290DBF80400039000235D
:105860001A46CDF8009020460299FFF749FCDDF872
:105870000CB0701E86B2002EEBD1D4F820A000BF71
:1058800000BF00BFFAF774FC019000BFFBF794FB68
:1058900000BF0E480078401E0C490870084600788A
:1058A00008B9FFF7A9FE00BFFBF7A0FB00BF0198F6
:1058B000FAF762FC00BF00BF00BF08F4004008B95F
:1058C000FDF7B2FC00202880504663E7F00A002074
:1058D00086B00020009000BF06E0D9490968480062
:1058E00001AA0021FEF732FBD64800780128F4D146
:1058F00001A8FDF7AFFD0027D3480068D04909682B
:10590000884205D9D0480068CD490968B0FBF1F755
:1059100027B9CD4800680A21B0FBF1F78EE1FBF70B
:105920008FFB8246FBF732FBC849086000BF00BF0F
:10593000FAF71EFC009000BFFBF73EFB00BFC44817
:105940000068C44908600020C149086000BFFBF737
:105950004DFB00BF0098FAF70FFC00BF00BFBE4828
:105960000068BC490968884248D9BB480068BB49FF
:10597000884205D242F2107003900120029023E089
:10598000B5480068B649884205D24FF47A70039052
:105990000A20029018E0B0480068B249884203D259
:1059A0006420039002900FE0AB480068AE49884243
:1059B00005D20A2003904FF47A70029004E001208F
:1059C000039042F210700290A34801680298B1FB64
:1059D000F0F9A049039809684843B0FBF9F042F296
:1059E0001071081AA1490880A148008809888842D6
:1059F00008DA9E4800889E49088003E042F2107051
:105A00009A490880FDF7DAFD002500BF00BFFAF7CC
:105A1000AFFB009000BFFBF7CFFA00BF95480468CA
:105A200000BFFBF7E3FA00BF0098FAF7A5FB00BF41
:105A300000BF72E000BF00BF00BFFAF799FB009003
:105A400000BFFBF7B9FA00BF8B480078401C8A49B9
:105A5000087008460078012801D1FFF7BFFD00BF9C
:105A6000FBF7C4FA00BF0098FAF786FB00BF00BF3F
:105A700000BF54F89C0F6060002044F89C0900BFF0
:105A800000BF00BFFAF774FB009000BFFBF794FA69
:105A900000BF79480078401E7749087008460078B2
:105AA000D0B9FFF7A9FD7548008800280BDD00BFBD
:105AB000FBF79CFA00BF0098FAF75EFB00BF00BF3F
:105AC000FFF75EFD11E000BFFBF790FA00BF009802
:105AD000FAF752FB00BF08E000BFFBF787FA00BFF0
